:020000040800F2
:1000000000280020C5110008551100085B110008E8
:1000100061110008671100086D1100080000000060
:100020000000000000000000000000007311000844
:100030007F110008000000008B11000897110008D4
:100040000D1200080D1200080D1200080D12000814
:100050000D1200080D1200080D1200080D12000804
:100060000D1200080D1200080D1200080D120008F4
:100070000D1200080D1200080D1200080D120008E4
:100080000D1200080D1200080D1200080D120008D4
:100090000D1200080D1200080D1200080D120008C4
:1000A0000D1200080D1200080D1200080D120008B4
:1000B000A51100080D120008000000000D12000834
:1000C0000D12000800000000000000000D120008E2
:1000D000000000000D1200080D12000800000000D2
:1000E0000D1200080D1200080D120008000000009B
:1000F0000000000000000000000000000000000000
:0C01000000000000000000005FF808F1A3
:10010C0010B5054C237833B9044B13B10448AFF345
:10011C0000800123237010BD20000020000000008F
:10012C000C28000808B5034B1BB103490348AFF377
:10013C00008008BD00000000240000200C280008EE
:10014C0080B483B000AF78607B68092B70D801A2B3
:10015C0052F823F0890100089B010008AD0100084A
:10016C00BF010008D1010008E3010008F5010008F7
:10017C0007020008190200082B0200082F4BDB684D
:10018C0023F0FE032D4A43F08003D36051E02B4B48
:10019C00DB6823F0FF03294A43F0F303D36048E004
:1001AC00264BDB6823F0FF03244A43F04903D3605A
:1001BC003FE0224BDB6823F0FF03204A43F061034E
:1001CC00D36036E01D4BDB6823F0FF031B4A43F082
:1001DC003303D3602DE0194BDB6823F0FF03174A80
:1001EC0043F02503D36024E0144BDB6823F0FF03BA
:1001FC00124A43F00503D3601BE0104BDB6823F07D
:10020C00FF030E4A43F0F103D36012E00B4BDB68A3
:10021C0023F0FF03094A43F00103D36009E0074BC5
:10022C00DB6823F0FF03054A43F02103D36000E0B1
:10023C0000BF00BF0C37BD4680BC704700080140B2
:10024C0080B500AF114B00221A60114B00221A60CE
:10025C00104B01221A60002210210F4801F0D3FA32
:10026C00002201210C4801F0CEFA002202210A489A
:10027C0001F0C9FA00220421074801F0C4FA002257
:10028C000821054801F0BFFA00BF80BD74000020B2
:10029C00700000206C000020000C014080B500AF05
:1002AC0000221021494801F0AEFA002201214748F2
:1002BC0001F0A9FA00220221444801F0A4FA00221C
:1002CC000421424801F09FFA002208213F4801F026
:1002DC009AFA3F4B1B68042B74D801A252F823F0F6
:1002EC0001030008290300085B03000883030008CE
:1002FC00B503000801220121344801F084FA354B82
:10030C001B68354A82FB03129210DB17D31A18466E
:10031C00FFF716FF2E4B01221A6054E00122022136
:10032C002A4801F070FA2B4B1A682B4B83FB0213F3
:10033C009910D317C91A0B469B000B445B00D11ABA
:10034C000846FFF7FDFE224B02221A603BE0012219
:10035C0004211E4801F057FA204B1B681E4A82FBF1
:10036C0003129210DB17D31A1846FFF7E9FE184B4D
:10037C0003221A6027E001220821144801F043FAF5
:10038C00164B1A68144B83FB02139910D317C91A16
:10039C000B469B000B445B00D11A0846FFF7D0FEBE
:1003AC000B4B04221A600EE001221021074801F0C9
:1003BC002AFA0B4B1B681846FFF7C2FE044B0022AF
:1003CC001A6000E000BF00BF80BD00BF000C014000
:1003DC003C000020740000206766666670000020F8
:1003EC006C00002080B500AF094B05221A60094B48
:1003FC0003221A60084B02221A600021002000F030
:10040C000DF80021012000F009F800BF80BD00BFED
:10041C0040000020480000204400002080B582B03D
:10042C0000AF78600B46FB707B68002BC0F29880A5
:10043C007B68012B00F39480FB78032B00F29280F5
:10044C0001A252F823F000BF65040008A7040008BD
:10045C00E90400082B050008444A7B6832F8133085
:10046C0000221946424801F0CEF9424A7B6832F824
:10047C001330002219463E4801F0C5F93E4A7B680C
:10048C0032F8133000221946394801F0BCF93B4AC6
:10049C007B68134400221A7065E0344A7B6832F89A
:1004AC00133001221946324801F0ADF9314A7B680C
:1004BC0032F81330002219462D4801F0A4F92E4AC7
:1004CC007B6832F8133000221946294801F09BF959
:1004DC002A4A7B68134401221A7044E0234A7B6841
:1004EC0032F8133000221946214801F08CF9214AC8
:1004FC007B6832F81330012219461D4801F083F94C
:10050C001D4A7B6832F8133000221946184801F056
:10051C007AF91A4A7B68134402221A7023E0134AB0
:10052C007B6832F8133000221946114801F06BF940
:10053C00104A7B6832F81330002219460C4801F03F
:10054C0062F90D4A7B6832F81330012219460848CB
:10055C0001F059F9094A7B68134403221A7002E02E
:10056C0000BF00E000BF0837BD4680BD0000002082
:10057C000008014004000020080000204C0000206E
:10058C0080B500AFFFF72EFF002000F00BF8002223
:10059C004FF40041024801F036F900BF80BD00BFA6
:1005AC000008014080B582B000AF0346FB71FB79B7
:1005BC00032B7BD801A252F823F000BFD905000809
:1005CC001106000849060008810600084FF47A71EC
:1005DC00012000F0F9FC384B1B68384A1360384B8B
:1005EC001B68384A1360384B01221A600121002025
:1005FC00FFF714FF03210120FFF710FF334B0022FC
:10060C001A7054E04FF4FA71012000F0DDFC2A4B13
:10061C001B682A4A1360284B1B682A4A13602A4B12
:10062C0002221A6000210020FFF7F8FE00210120B1
:10063C00FFF7F4FE254B01221A7038E04FF4FA71E3
:10064C00012000F0C1FC224B1B681C4A1360204B9C
:10065C001B681C4A13601C4B03221A6000210020EB
:10066C00FFF7DCFE00210120FFF7D8FE174B02221A
:10067C001A701CE04FF4FA71012000F0A5FC104B2D
:10068C001B680E4A13600E4B1B680E4A13600E4B10
:10069C0004221A6000210020FFF7C0FE0021012077
:1006AC00FFF7BCFE094B03221A7000E000BF00BF2D
:1006BC000837BD4680BD00BF4000002074000020FC
:1006CC0048000020700000206C0000204E0000202C
:1006DC004400002080B500AFA64B1B78032B00F222
:1006EC00878201A252F823F005070008630800086E
:1006FC00A1090008C90A0008012000F0B9FC034652
:10070C00012B40F08E804FF47A71012000F05CFCDC
:10071C00994B1B78032B2AD0032B3ADC012B02D0EC
:10072C00022B12D035E0954B1B68013B934A1360AA
:10073C00924B1B68002B2EDC914B1B688F4A13606D
:10074C0003210020FFF76AFE25E08C4B1B68013B60
:10075C008A4A1360894B1B68002B1EDC894B1B6873
:10076C00864A136001210020FFF758FE15E0834BE9
:10077C001B68013B814A1360804B1B68002B0EDC0D
:10078C00814B1B687D4A136002210020FFF746FE57
:10079C0005E000BF04E000BF02E000BF00E000BFC6
:1007AC00754B5B78032B2AD0032B3CDC012B02D03E
:1007BC00022B12D037E0754B1B68013B734A136058
:1007CC00724B1B68002B30DC6D4B1B686F4A13603F
:1007DC0003210120FFF722FE27E06C4B1B68013B35
:1007EC006A4A1360694B1B68002B20DC654B1B6845
:1007FC00664A136001210120FFF710FE17E0634BDE
:10080C001B68013B614A1360604B1B68002B10D1C5
:10081C005D4B1B685D4A136002210120FFF7FEFD52
:10082C0007E000BF06E000BF04E000BF02E000BF2D
:10083C0000E000BF002000F083FA0346002B00F01C
:10084C00D0810120FFF7AEFE01224FF40041504849
:10085C0000F0D9FFC5E1012000F00AFC0346012B92
:10086C0022D1454B1B78002B02D0012B0ED01CE063
:10087C004FF4FA71012000F0A7FB01210020FFF7D3
:10088C00CDFD01210120FFF7C9FD0EE04FF4FA71F7
:10089C00012000F099FB00210020FFF7BFFD002193
:1008AC000120FFF7BBFD00E000BF002000F048FA7C
:1008BC000346002B02D00220FFF774FE012000F04B
:1008CC003FFA0346002B21D001224FF4004130485F
:1008DC0000F099FF294B1B680133284A1360274B02
:1008EC001B68632B02DD254B01221A60274B1B680A
:1008FC000133264A1360254B1B68632B02DD234B07
:10090C0001221A601D4B1B681E4A1360022000F066
:10091C0017FA0346002B21D001224FF400411C484A
:10092C0000F071FF154B1B68013B144A1360134B0D
:10093C001B68002B02DC114B63221A60134B1B68E3
:10094C00013B124A1360114B1B68002B02DC0F4B4E
:10095C0063221A60094B1B680A4A1360032000F0DB
:10096C00EFF90346002B00F03E810020FFF71AFE42
:10097C0039E100BF4E0000204C0000207400002024
:10098C00480000204000002044000020700000209F
:10099C0000080140012000F06BFB0346012B22D123
:1009AC00944B1B78002B02D0022B0ED01CE04FF482
:1009BC00FA71012000F008FB02210020FFF72EFD48
:1009CC0002210120FFF72AFD0EE04FF4FA710120FD
:1009DC0000F0FAFA00210020FFF720FD0021012091
:1009EC00FFF71CFD00E000BF002000F0A9F9034652
:1009FC00002B08D001224FF400417F4800F003FF88
:100A0C000320FFF7CFFD012000F09AF90346002BDD
:100A1C0021D001224FF40041774800F0F4FE774BCF
:100A2C001B680133754A1360744B1B68632B02DD22
:100A3C00724B01221A60724B1B680133704A1360AF
:100A4C006F4B1B68632B02DD6D4B01221A606B4BE5
:100A5C001B686C4A1360022000F072F90346002BED
:100A6C0021D001224FF40041634800F0CCFE634BCF
:100A7C001B68013B614A1360604B1B68002B02DC56
:100A8C005E4B63221A605E4B1B68013B5C4A136031
:100A9C005B4B1B68002B02DC594B63221A60574BD3
:100AAC001B68584A1360032000F04AF90346002BD8
:100ABC0000F09B800020FFF775FD96E0012000F010
:100ACC00D7FA0346012B22D14A4B1B78002B02D0BC
:100ADC00032B0ED01CE04FF4FA71012000F074FAD5
:100AEC0003210020FFF79AFC03210120FFF796FC5D
:100AFC000EE04FF4FA71012000F066FA002100209C
:100B0C00FFF78CFC00210120FFF788FC00E000BF00
:100B1C00002000F015F90346002B08D001224FF4F9
:100B2C000041354800F06FFE0120FFF73BFD01202E
:100B3C0000F006F90346002B21D001224FF40041AE
:100B4C002D4800F060FE2D4B1B6801332B4A1360BF
:100B5C002A4B1B68632B02DD284B01221A60284BA1
:100B6C001B680133264A1360254B1B68632B02DD7F
:100B7C00234B01221A60214B1B68234A136002206D
:100B8C0000F0DEF80346002B21D001224FF4004187
:100B9C00194800F038FE194B1B68013B174A1360CB
:100BAC00164B1B68002B02DC144B63221A60144B8F
:100BBC001B68013B124A1360114B1B68002B02DCB3
:100BCC000F4B63221A600D4B1B680F4A13600320F6
:100BDC0000F0B6F80346002B09D00020FFF7E2FC2A
:100BEC0005E000BF04E000BF02E000BF00E000BF72
:100BFC0000BF80BD4C0000200008014074000020A4
:100C0C0070000020440000204800002080B582B015
:100C1C0000AF00237B607BE0414A7B68134419786A
:100C2C00404A7B6813440A461A703F4A7B68134457
:100C3C0019783B4A7B6813440A461A703B4A7B6816
:100C4C0032F8133019463A4800F0C6FD03461946EF
:100C5C00354A7B6813440A461A70334A7B6813443E
:100C6C001A782F497B680B441B789A424DD12C4A39
:100C7C007B6813441A782B497B680B441B789A4287
:100C8C0043D12C4A7B6813441A7827497B680B4460
:100C9C001B789A4219D0244A7B6813441978254A48
:100CAC007B6813440A461A70224A7B6813441B78EB
:100CBC00002B2AD1204A7B68134401221A701F4A48
:100CCC007B68642122F813101FE01A4A7B681344D6
:100CDC001B78002B19D1194A7B6832F81330013B71
:100CEC0099B2164A7B6822F81310144A7B6832F8C2
:100CFC001330002B09D1104A7B68134401221A705F
:100D0C000E4A7B68322122F813107B6801337B601A
:100D1C007B68032B80DD00BF00BF0837BD4680BD5C
:100D2C00580000205C000020540000200C00002023
:100D3C00000C0140500000206000002064000020E6
:100D4C0080B483B000AF78607B68002B02DB7B68DB
:100D5C00032B01DD00230DE0094A7B6813441B784B
:100D6C00012B06D1064A7B68134400221A7001231A
:100D7C0000E0002318460C37BD4680BC704700BF0E
:100D8C006000002080B500AF00F03CFA00F020F8C5
:100D9C0000F0A6F800F058F80C4801F079F9FFF7CC
:100DAC004FFAFFF7EDFB0A21002000F00DF90020AF
:100DBC0000F05EF90346012B05D10A21002000F05A
:100DCC0003F9FFF76BFAFFF785FCF0E778000020DA
:100DDC0080B590B000AF07F1180328220021184607
:100DEC0001F006FD3B1D00221A605A609A60DA6021
:100DFC001A610223BB610123BB621023FB62002337
:100E0C007B6307F11803184600F016FD0346002B10
:100E1C0001D000F0D3F80F237B600023BB600023CC
:100E2C00FB6000233B6100237B613B1D00211846C6
:100E3C0000F082FF0346002B01D000F0BFF800BF8A
:100E4C004037BD4680BD000080B586B000AF07F1CD
:100E5C00080300221A605A609A60DA603B4600224E
:100E6C001A605A601D4B4FF080421A601B4B41F6C2
:100E7C003F725A60194B00229A60184B0922DA60B3
:100E8C00164B00221A61154B00229A61134801F08F
:100E9C00AFF80346002B01D000F090F84FF48053CC
:100EAC00BB6007F1080319460C4801F02DFA034604
:100EBC00002B01D000F082F800233B6000237B6004
:100ECC003B461946054801F005FC0346002B01D0B2
:100EDC0000F074F800BF1837BD4680BD78000020C4
:100EEC0080B586B000AF07F1080300221A605A6083
:100EFC009A60DA60284B9B69274A43F0040393619C
:100F0C00254B9B6903F004037B607B68224B9B6938
:100F1C00214A43F0080393611F4B9B6903F00803BC
:100F2C003B603B6800224BF6FE711C4800F06BFCEA
:100F3C0000221F211A4800F066FC4BF6FE73BB60C2
:100F4C000123FB6000233B6102237B6107F1080353
:100F5C001946124800F0C6FA1F23BB600123FB6040
:100F6C0000233B6102237B6107F1080319460C48FF
:100F7C0000F0B8FA4FF47043BB600023FB60012310
:100F8C003B6107F108031946054800F0ABFA00BFB6
:100F9C001837BD4680BD00BF00100240000801405C
:100FAC00000C014080B582B000AF786000F030F8E2
:100FBC00FFF72CFE00BF0837BD4680BD80B400AFE4
:100FCC0072B600BFFEE7000080B483B000AF78605B
:100FDC0039607B68032B0FDC0A4A7B68002142F8DE
:100FEC0023103B68084A82FB03129210DB17D21ABB
:100FFC0006497B6841F8232000BF0C37BD4680BCF6
:10100C00704700BFD000002067666666C0000020F5
:10101C0080B483B000AF00237B601CE0124A7B6875
:10102C0052F82330002B13DB0F4A7B6852F8233025
:10103C005A1E0D497B6841F823200B4A7B6852F8F5
:10104C002330002B04D1094A7B68012142F823107C
:10105C007B6801337B607B68032BDFDD00BF00BF47
:10106C000C37BD4680BC7047C0000020D00000206B
:10107C0080B483B000AF78607B68032B04DC064A35
:10108C007B6852F8233001E04FF0FF3318460C37E1
:10109C00BD4680BC704700BFD000002080B485B036
:1010AC0000AF154B9B69144A43F001039361124B3B
:1010BC009B6903F00103BB60BB680F4BDB690E4AF5
:1010CC0043F08053D3610C4BDB6903F080537B609E
:1010DC007B680A4B5B68FB60FB6823F0E063FB609A
:1010EC00FB6843F08063FB60044AFB68536000BFFD
:1010FC001437BD4680BC7047001002400000014010
:10110C0080B584B000AF78607B681B68B3F1804F0A
:10111C0013D10C4BDB690B4A43F00103D361094B30
:10112C00DB6903F00103FB60FB68002200211C203B
:10113C0000F0A1F91C2000F0BAF900BF1037BD4631
:10114C0080BD00BF0010024080B400AFFEE780B449
:10115C0000AFFEE780B400AFFEE780B400AFFEE75F
:10116C0080B400AFFEE780B400AF00BFBD4680BCCA
:10117C00704780B400AF00BFBD4680BC704780B4E0
:10118C0000AF00BFBD4680BC704780B500AF00F01B
:10119C007FF800BF80BD000080B500AF024800F0B2
:1011AC00C3FF00BF80BD00BF7800002080B400AF3B
:1011BC0000BFBD4680BC7047FFF7F8FF0B480C49D9
:1011CC000C4A002302E0D458C4500433C4188C4297
:1011DC00F9D3094A094C002301E013600432A242FE
:1011EC00FBD301F0E1FAFFF7CDFD704700000020C2
:1011FC00200000205028000820000020E4000020DF
:10120C00FEE7000080B500AF084B1B68074A43F0AF
:10121C0010031360032000F023F90F2000F008F8EE
:10122C00FFF73CFF0023184680BD00BF00200240A2
:10123C0080B582B000AF7860124B1A68124B1B78E5
:10124C0019464FF47A73B3FBF1F3B2FBF3F3184680
:10125C0000F03BF90346002B01D001230EE07B6824
:10126C000F2B0AD8002279684FF0FF3000F003F9F9
:10127C00064A7B681360002300E0012318460837F8
:10128C00BD4680BD140000201C000020180000206A
:10129C0080B400AF054B1B781A46054B1B681344F2
:1012AC00034A136000BFBD4680BC70471C00002081
:1012BC00E000002080B400AF024B1B681846BD460E
:1012CC0080BC7047E000002080B485B000AF78602F
:1012DC007B6803F00703FB600C4BDB68BB60BA68F0
:1012EC004FF6FF031340BB60FB681A02BB68134345
:1012FC0043F0BF6343F40033BB60044ABB68D36064
:10130C0000BF1437BD4680BC704700BF00ED00E045
:10131C0080B400AF044BDB681B0A03F007031846CC
:10132C00BD4680BC704700BF00ED00E080B483B0C8
:10133C0000AF0346FB7197F90730002B0BDBFB79F1
:10134C0003F01F02064997F907305B09012000FAE8
:10135C0002F241F8232000BF0C37BD4680BC704719
:10136C0000E100E080B483B000AF03463960FB714C
:10137C0097F90730002B0ADB3B68DAB20C4997F976
:10138C0007301201D2B20B4483F800230AE03B6809
:10139C00DAB20849FB7903F00F03043B1201D2B215
:1013AC000B441A7600BF0C37BD4680BC704700BF9B
:1013BC0000E100E000ED00E080B489B000AFF8601F
:1013CC00B9607A60FB6803F00703FB61FB69C3F14A
:1013DC000703042B28BF0423BB61FB690433062BD2
:1013EC0002D9FB69033B00E000237B614FF0FF3225
:1013FC00BB6902FA03F3DA43BB681A407B699A4073
:10140C004FF0FF317B6901FA03F3D9437B680B4042
:10141C00134318462437BD4680BC704780B582B054
:10142C0000AF78607B68013BB3F1807F01D301236F
:10143C000FE00A4A7B68013B53600F214FF0FF30ED
:10144C00FFF790FF054B00229A60044B07221A60AD
:10145C00002318460837BD4680BD00BF10E000E0F1
:10146C0080B582B000AF78607868FFF72DFF00BFC1
:10147C000837BD4680BD80B586B000AF0346B96065
:10148C007A60FB7300237B61FFF742FF78617A6817
:10149C00B9687869FFF790FF024697F90F3011464B
:1014AC001846FFF75FFF00BF1837BD4680BD80B5FB
:1014BC0082B000AF0346FB7197F907301846FFF76F
:1014CC0035FF00BF0837BD4680BD80B582B000AF88
:1014DC0078607868FFF7A2FF034618460837BD46C8
:1014EC0080BD000080B48BB000AF78603960002301
:1014FC007B6200233B6248E101227B6A02FA03F320
:10150C00FB613B681B68FA691340BB61BA69FB69F4
:10151C009A4240F037813B685B68A34A93425ED0A5
:10152C00A14A934275D8A14A934258D09F4A9342FC
:10153C006FD89F4A934252D09D4A934269D89D4A94
:10154C0093424CD09B4A934263D89B4A934246D0D9
:10155C00994A93425DD8122B2AD8122B59D801A242
:10156C0052F823F0EB150008C5150008D715000834
:10157C00191600081F1600081F1600081F16000871
:10158C001F1600081F1600081F1600081F1600085B
:10159C001F1600081F1600081F1600081F1600084B
:1015AC001F1600081F160008CD150008E1150008CD
:1015BC00824A934213D02CE03B68DB683B6229E003
:1015CC003B68DB6804333B6224E03B68DB68083330
:1015DC003B621FE03B68DB680C333B621AE03B6804
:1015EC009B68002B02D104233B6213E03B689B6891
:1015FC00012B05D108233B627B68FA691A6109E06B
:10160C0008233B627B68FA695A6103E000233B6262
:10161C0000E000BFBB69FF2B01D87B6801E07B6851
:10162C0004337B61BB69FF2B02D87B6A9B0002E011
:10163C007B6A083B9B003B617B691A680F213B6905
:10164C0001FA03F3DB431A40396A3B6901FA03F3ED
:10165C001A437B691A603B685B6803F08053002B6C
:10166C0000F09080564B9B69554A43F001039361FF
:10167C00534B9B6903F00103BB60BB68514A7B6A07
:10168C009B08023352F82330FB607B6A03F00303A0
:10169C009B000F2202FA03F3DB43FA681340FB6052
:1016AC007B68494A93420DD07B68484A934207D0E5
:1016BC007B68474A934201D1022304E0032302E0F2
:1016CC00012300E000237A6A02F0030292009340A7
:1016DC00FA681343FB603B497B6A9B080233FA6848
:1016EC0041F823203B685B6803F48013002B06D081
:1016FC00384B9A683749BB6913438B6006E0354B0E
:10170C009A68BB69DB43334913408B603B685B6869
:10171C0003F40013002B06D02E4BDA682D49BB695D
:10172C001343CB6006E02B4BDA68BB69DB432949DA
:10173C001340CB603B685B6803F40033002B06D08E
:10174C00244B5A682349BB6913434B6006E0214B79
:10175C005A68BB69DB431F4913404B603B685B68AD
:10176C0003F48033002B06D01A4B1A681949BB6955
:10177C0013430B6006E0174B1A68BB69DB43154932
:10178C0013400B607B6A01337B623B681A687B6A8F
:10179C0022FA03F3002B7FF4AFAE00BF00BF2C374F
:1017AC00BD4680BC704700BF0000321000003110F5
:1017BC000000221000002110000012100000111077
:1017CC00001002400000014000080140000C0140E4
:1017DC00001001400004014080B485B000AF786077
:1017EC000B467B807B689A687B881340002B02D069
:1017FC000123FB7301E00023FB73FB7B18461437BA
:10180C00BD4680BC704780B483B000AF78600B4697
:10181C007B8013467B707B78002B03D07A887B68A7
:10182C001A6103E07B881A047B681A6100BF0C37CD
:10183C00BD4680BC7047000080B586B000AF7860B4
:10184C007B68002B01D101236CE27B681B6803F0E1
:10185C000103002B00F08780924B5B6803F00C03B4
:10186C00042B0CD08F4B5B6803F00C03082B12D1AC
:10187C008C4B5B6803F48033B3F5803F0BD1894B01
:10188C001B6803F40033002B6CD07B685B68002B67
:10189C0068D1012346E27B685B68B3F5803F06D1D3
:1018AC00804B1B687F4A43F4803313602EE07B68C7
:1018BC005B68002B0CD17B4B1B687A4A23F480337A
:1018CC001360784B1B68774A23F4802313601DE068
:1018DC007B685B68B3F5A02F0CD1724B1B68714A07
:1018EC0043F4802313606F4B1B686E4A43F48033C0
:1018FC0013600BE06B4B1B686A4A23F48033136054
:10190C00684B1B68674A23F4802313607B685B6811
:10191C00002B13D0FFF7CEFC386108E0FFF7CAFCB0
:10192C0002463B69D31A642B01D90323FAE15D4BC0
:10193C001B6803F40033002BF0D014E0FFF7BAFC63
:10194C00386108E0FFF7B6FC02463B69D31A642BFA
:10195C0001D90323E6E1534B1B6803F40033002B3E
:10196C00F0D100E000BF7B681B6803F00203002B82
:10197C0063D04C4B5B6803F00C03002B0BD0494B32
:10198C005B6803F00C03082B1CD1464B5B6803F41B
:10199C008033002B16D1434B1B6803F00203002B42
:1019AC0005D07B681B69012B01D00123BAE13D4BAB
:1019BC001B6823F0F8027B685B69DB003949134331
:1019CC000B603AE07B681B69002B20D0364B012260
:1019DC001A60FFF76FFC386108E0FFF76BFC0246FA
:1019EC003B69D31A022B01D903239BE12D4B1B68B6
:1019FC0003F00203002BF0D02A4B1B6823F0F802F3
:101A0C007B685B69DB00274913430B6015E0264BB1
:101A1C0000221A60FFF74EFC386108E0FFF74AFC21
:101A2C0002463B69D31A022B01D903237AE11D4BE1
:101A3C001B6803F00203002BF0D17B681B6803F0DA
:101A4C000803002B3AD07B689B69002B19D0174BED
:101A5C0001221A60FFF72EFC386108E0FFF72AFC20
:101A6C0002463B69D31A022B01D903235AE10D4BD1
:101A7C005B6A03F00203002BF0D0012000F09AFA0D
:101A8C001CE00A4B00221A60FFF714FC38610FE0CF
:101A9C00FFF710FC02463B69D31A022B08D903232B
:101AAC0040E100BF0010024000004242800442426C
:101ABC009E4B5B6A03F00203002BE9D17B681B6829
:101ACC0003F00403002B00F0A6800023FB75974B5A
:101ADC00DB6903F08053002B0DD1944BDB69934AE7
:101AEC0043F08053D361914BDB6903F08053BB60AF
:101AFC00BB680123FB758E4B1B6803F48073002BB2
:101B0C0018D18B4B1B688A4A43F480731360FFF720
:101B1C00D1FB386108E0FFF7CDFB02463B69D31AD5
:101B2C00642B01D90323FDE0814B1B6803F4807304
:101B3C00002BF0D07B68DB68012B06D17B4B1B6A3A
:101B4C007A4A43F0010313622DE07B68DB68002BBB
:101B5C000CD1764B1B6A754A23F001031362734B4D
:101B6C001B6A724A23F0040313621CE07B68DB6877
:101B7C00052B0CD16D4B1B6A6C4A43F004031362AA
:101B8C006A4B1B6A694A43F0010313620BE0674B13
:101B9C001B6A664A23F001031362644B1B6A634A97
:101BAC0023F0040313627B68DB68002B15D0FFF76E
:101BBC0081FB38610AE0FFF77DFB02463B69D31AD3
:101BCC0041F28832934201D90323ABE0574B1B6A95
:101BDC0003F00203002BEED014E0FFF76BFB38612F
:101BEC000AE0FFF767FB02463B69D31A41F28832E1
:101BFC00934201D9032395E04C4B1B6A03F002037B
:101C0C00002BEED1FB7D012B05D1484BDB69474AFC
:101C1C0023F08053D3617B68DB69002B00F081805B
:101C2C00424B5B6803F00C03082B61D07B68DB69CB
:101C3C00022B46D13F4B00221A60FFF73BFB386169
:101C4C0008E0FFF737FB02463B69D31A022B01D998
:101C5C00032367E0354B1B6803F00073002BF0D1B6
:101C6C007B681B6AB3F5803F08D1304B5B6823F46B
:101C7C0000327B689B682D4913434B602B4B5B6890
:101C8C0023F474127B68196A7B685B6A0B432749DF
:101C9C0013434B60274B01221A60FFF70BFB386193
:101CAC0008E0FFF707FB02463B69D31A022B01D968
:101CBC00032337E01D4B1B6803F00073002BF0D09F
:101CCC002FE01C4B00221A60FFF7F4FA386108E091
:101CDC00FFF7F0FA02463B69D31A022B01D9032312
:101CEC0020E0124B1B6803F00073002BF0D118E0BE
:101CFC007B68DB69012B01D1012313E00B4B5B6883
:101D0C00FB60FB6803F480327B681B6A9A4206D145
:101D1C00FB6803F470127B685B6A9A4201D0012362
:101D2C0000E0002318461837BD4680BD0010024065
:101D3C00007000406000424280B584B000AF786013
:101D4C0039607B68002B01D10123D0E06A4B1B6802
:101D5C0003F007033A689A4210D9674B1B6823F0CB
:101D6C00070265493B6813430B60634B1B6803F028
:101D7C0007033A689A4201D00123B8E07B681B68DC
:101D8C0003F00203002B20D07B681B6803F00403D4
:101D9C00002B05D0594B5B68584A43F4E063536001
:101DAC007B681B6803F00803002B05D0534B5B6862
:101DBC00524A43F460535360504B5B6823F0F0027B
:101DCC007B689B684D4913434B607B681B6803F031
:101DDC000103002B40D07B685B68012B07D1474B7C
:101DEC001B6803F40033002B15D101237FE07B68C3
:101DFC005B68022B07D1414B1B6803F00073002B6F
:101E0C0009D1012373E03D4B1B6803F00203002B47
:101E1C0001D101236BE0394B5B6823F003027B6833
:101E2C005B68364913434B60FFF744FAF8600AE0ED
:101E3C00FFF740FA0246FB68D31A41F2883293420C
:101E4C0001D9032353E02D4B5B6803F00C027B6834
:101E5C005B689B009A42EBD1274B1B6803F007038E
:101E6C003A689A4210D2244B1B6823F0070222498D
:101E7C003B6813430B60204B1B6803F007033A6865
:101E8C009A4201D0012332E07B681B6803F0040303
:101E9C00002B08D0194B5B6823F4E0627B68DB688D
:101EAC00164913434B607B681B6803F00803002B37
:101EBC0009D0124B5B6823F460527B681B69DB0012
:101ECC000E4913434B6000F021F802460B4B5B6844
:101EDC001B0903F00F030A49CB5C22FA03F3094AEE
:101EEC001360094B1B681846FFF7A2F9002318462C
:101EFC001037BD4680BD00BF0020024000100240DC
:101F0C0024280008140000201800002080B487B09A
:101F1C0000AF0023FB600023BB6000237B61002328
:101F2C007B6000233B611E4B5B68FB60FB6803F02E
:101F3C000C03042B02D0082B03D027E0194B3B6178
:101F4C0027E0FB689B0C03F00F03174AD35C7B6004
:101F5C00FB6803F48033002B10D0114B5B685B0CD7
:101F6C0003F00103114AD35CBB607B680D4A02FB92
:101F7C0003F2BB68B2FBF3F37B6104E07B680C4AB1
:101F8C0002FB03F37B617B693B6102E0054B3B6128
:101F9C0000BF3B6918461C37BD4680BC704700BF6C
:101FAC000010024000127A0034280008442800086F
:101FBC0000093D0080B485B000AF78600A4B1B6807
:101FCC000A4AA2FB03235B0A7A6802FB03F3FB6059
:101FDC0000BFFB685A1EFA60002BF9D100BF00BF8E
:101FEC001437BD4680BC704714000020D34D6210DE
:101FFC0080B582B000AF78607B68002B01D10123E3
:10200C0041E07B6893F83D30DBB2002B06D17B6856
:10201C00002283F83C207868FFF772F87B68022274
:10202C0083F83D207B681A687B6804331946104698
:10203C0000F056FA7B68012283F846207B68012267
:10204C0083F83E207B68012283F83F207B680122C5
:10205C0083F840207B68012283F841207B680122B1
:10206C0083F842207B68012283F843207B6801229D
:10207C0083F844207B68012283F845207B68012289
:10208C0083F83D20002318460837BD4680BD00006C
:10209C0080B485B000AF78607B6893F83D30DBB2DC
:1020AC00012B01D0012335E07B68022283F83D200F
:1020BC007B681B68DA687B681B6842F00102DA6097
:1020CC007B681B68164A934209D07B681B68B3F186
:1020DC00804F04D07B681B68124A934211D17B68F5
:1020EC001B689B6803F00703FB60FB68062B10D092
:1020FC007B681B681A687B681B6842F001021A60D7
:10210C0007E07B681B681A687B681B6842F0010259
:10211C001A60002318461437BD4680BC704700BFB8
:10212C00002C01400004004080B584B000AF786002
:10213C007B681B68DB68FB607B681B681B69BB608A
:10214C00BB6803F00203002B20D0FB6803F00203F2
:10215C00002B1BD07B681B686FF002021A617B6836
:10216C0001221A777B681B689B6903F00303002B21
:10217C0003D0786800F098F905E0786800F08BF9E6
:10218C00786800F09AF97B6800221A77BB6803F034
:10219C000403002B20D0FB6803F00403002B1BD09E
:1021AC007B681B686FF004021A617B6802221A7745
:1021BC007B681B689B6903F44073002B03D0786821
:1021CC0000F072F905E0786800F065F9786800F0C5
:1021DC0074F97B6800221A77BB6803F00803002BA4
:1021EC0020D0FB6803F00803002B1BD07B681B6816
:1021FC006FF008021A617B6804221A777B681B68EF
:10220C00DB6903F00303002B03D0786800F04CF972
:10221C0005E0786800F03FF9786800F04EF97B68CB
:10222C0000221A77BB6803F01003002B20D0FB6848
:10223C0003F01003002B1BD07B681B686FF010029F
:10224C001A617B6808221A777B681B68DB6903F4C8
:10225C004073002B03D0786800F026F905E078680D
:10226C0000F019F9786800F028F97B6800221A77D9
:10227C00BB6803F00103002B0CD0FB6803F00103D7
:10228C00002B07D07B681B686FF001021A6178681D
:10229C00FEF788FEBB6803F08003002B0CD0FB68B4
:1022AC0003F08003002B07D07B681B686FF0800263
:1022BC001A61786800F06FFABB6803F04003002BDA
:1022CC000CD0FB6803F04003002B07D07B681B6825
:1022DC006FF040021A61786800F0F8F8BB6803F000
:1022EC002003002B0CD0FB6803F02003002B07D03D
:1022FC007B681B686FF020021A61786800F042FA64
:10230C0000BF1037BD4680BD80B584B000AF78608B
:10231C0039600023FB737B6893F83C30012B01D1AF
:10232C000223B4E07B68012283F83C207B68022204
:10233C0083F83D207B681B689B68BB60BB6823F0FF
:10234C007703BB60BB6823F47F43BB607B681B686F
:10235C00BA689A603B681B68B3F5005F3ED0B3F572
:10236C00005F00F28780B3F5805F00F08680B3F5E4
:10237C00805F7FD8702B1AD0702B7BD8602B50D0FD
:10238C00602B77D8502B3CD0502B73D8402B58D087
:10239C00402B6FD8302B64D0302B6BD8202B60D0D7
:1023AC00202B67D8002B5CD0102B5AD062E07B68B6
:1023BC0018683B6899683B685A683B68DB6800F0B2
:1023CC006AF97B681B689B68BB60BB6843F077034A
:1023DC00BB607B681B68BA689A604FE07B681868C2
:1023EC003B6899683B685A683B68DB6800F053F9B6
:1023FC007B681B689A687B681B6842F480429A6011
:10240C003CE07B6818683B6859683B68DB681A4697
:10241C0000F0CAF87B681B685021184600F021F9BF
:10242C002CE07B6818683B6859683B68DB681A4687
:10243C0000F0E8F87B681B686021184600F011F981
:10244C001CE07B6818683B6859683B68DB681A4677
:10245C0000F0AAF87B681B684021184600F001F9CF
:10246C000CE07B681A683B681B681946104600F044
:10247C00F8F803E00123FB7300E000BF7B68012246
:10248C0083F83D207B68002283F83C20FB7B1846B8
:10249C001037BD4680BD80B483B000AF786000BFFC
:1024AC000C37BD4680BC704780B483B000AF7860F9
:1024BC0000BF0C37BD4680BC704780B483B000AF02
:1024CC00786000BF0C37BD4680BC704780B483B0C9
:1024DC0000AF786000BF0C37BD4680BC7047000071
:1024EC0080B485B000AF786039607B681B68FB6096
:1024FC007B682B4A934207D07B68B3F1804F03D0A3
:10250C007B68284A934208D1FB6823F07003FB6078
:10251C003B685B68FA681343FB607B68204A934214
:10252C0007D07B68B3F1804F03D07B681D4A934280
:10253C0008D1FB6823F44073FB603B68DB68FA68E6
:10254C001343FB60FB6823F080023B685B69134319
:10255C00FB607B68FA681A603B689A687B68DA6291
:10256C003B681A687B689A627B680D4A934203D178
:10257C003B681A697B681A637B6801225A617B6825
:10258C001B6903F00103002B05D07B681B6923F04A
:10259C0001027B681A6100BF1437BD4680BC7047CE
:1025AC00002C01400004004080B487B000AFF860FC
:1025BC00B9607A60FB681B6A7B61FB681B6A23F05D
:1025CC000102FB681A62FB689B693B613B6923F063
:1025DC00F0033B617B681B013A6913433B617B69E8
:1025EC0023F00A037B617A69BB6813437B61FB6848
:1025FC003A699A61FB687A691A6200BF1C37BD465A
:10260C0080BC704780B487B000AFF860B9607A6066
:10261C00FB681B6A7B61FB681B6A23F01002FB687A
:10262C001A62FB689B693B613B6923F470433B6115
:10263C007B681B033A6913433B617B6923F0A0035E
:10264C007B61BB681B017A6913437B61FB683A6948
:10265C009A61FB687A691A6200BF1C37BD4680BC60
:10266C00704780B485B000AF786039607B689B6838
:10267C00FB60FB6823F07003FB603A68FB68134354
:10268C0043F00703FB607B68FA689A6000BF14375D
:10269C00BD4680BC704780B487B000AFF860B960AD
:1026AC007A603B60FB689B687B617B6923F47F43AA
:1026BC007B613B681A027B681A43BB6813437A69D7
:1026CC0013437B61FB687A699A6000BF1C37BD4677
:1026DC0080BC704780B485B000AF786039607B688F
:1026EC0093F83C30012B01D1022341E07B6801229D
:1026FC0083F83C207B68022283F83D207B681B68B2
:10270C005B68FB607B681B689B68BB60FB6823F0A5
:10271C007003FB603B681B68FA681343FB607B68C3
:10272C001B68FA685A607B681B68144A934209D08C
:10273C007B681B68B3F1804F04D07B681B68104A20
:10274C0093420CD1BB6823F08003BB603B685B6891
:10275C00BA681343BB607B681B68BA689A607B6875
:10276C00012283F83D207B68002283F83C20002363
:10277C0018461437BD4680BC704700BF002C014082
:10278C000004004080B483B000AF786000BF0C3709
:10279C00BD4680BC704780B483B000AF786000BF8A
:1027AC000C37BD4680BC704770B500260C4D0D4CE7
:1027BC00641BA410A64209D100F022F800260A4D91
:1027CC000A4C641BA410A64205D170BD55F8043BFD
:1027DC0098470136EEE755F8043B98470136F2E787
:1027EC004828000848280008482800084C280008F9
:1027FC0003460244934200D1704703F8011BF9E7EA
:10280C00F8B500BFF8BC08BC9E467047F8B500BFD1
:08281C00F8BC08BC9E467047A1
:10282400000000000000000001020304060708097C
:1028340002030405060708090A0B0C0D0E0F1010FD
:04284400010200008D
:042848003101000852
:04284C000D01000872
:102850000001000800020010000400200010002009
:102860000040008000127A0010000000010000000B
:04000005080011C519
:00000001FF
